{"abi":[{"type":"function","name":"CONTROLLABLE_VERSION","inputs":[],"outputs":[{"name":"","type":"string","internalType":"string"}],"stateMutability":"view"},{"type":"function","name":"VERSION","inputs":[],"outputs":[{"name":"","type":"string","internalType":"string"}],"stateMutability":"view"},{"type":"function","name":"approve","inputs":[{"name":"to","type":"address","internalType":"address"},{"name":"tokenId","type":"uint256","internalType":"uint256"}],"outputs":[],"stateMutability":"nonpayable"},{"type":"function","name":"balanceOf","inputs":[{"name":"owner","type":"address","internalType":"address"}],"outputs":[{"name":"","type":"uint256","internalType":"uint256"}],"stateMutability":"view"},{"type":"function","name":"createdBlock","inputs":[],"outputs":[{"name":"","type":"uint256","internalType":"uint256"}],"stateMutability":"view"},{"type":"function","name":"getApproved","inputs":[{"name":"tokenId","type":"uint256","internalType":"uint256"}],"outputs":[{"name":"","type":"address","internalType":"address"}],"stateMutability":"view"},{"type":"function","name":"getRevenueReceiver","inputs":[{"name":"tokenId","type":"uint256","internalType":"uint256"}],"outputs":[{"name":"receiver","type":"address","internalType":"address"}],"stateMutability":"view"},{"type":"function","name":"init","inputs":[{"name":"platform_","type":"address","internalType":"address"}],"outputs":[],"stateMutability":"nonpayable"},{"type":"function","name":"isApprovedForAll","inputs":[{"name":"owner","type":"address","internalType":"address"},{"name":"operator","type":"address","internalType":"address"}],"outputs":[{"name":"","type":"bool","internalType":"bool"}],"stateMutability":"view"},{"type":"function","name":"mint","inputs":[{"name":"to","type":"address","internalType":"address"},{"name":"strategyLogicId","type":"string","internalType":"string"}],"outputs":[{"name":"tokenId","type":"uint256","internalType":"uint256"}],"stateMutability":"nonpayable"},{"type":"function","name":"name","inputs":[],"outputs":[{"name":"","type":"string","internalType":"string"}],"stateMutability":"view"},{"type":"function","name":"ownerOf","inputs":[{"name":"tokenId","type":"uint256","internalType":"uint256"}],"outputs":[{"name":"","type":"address","internalType":"address"}],"stateMutability":"view"},{"type":"function","name":"platform","inputs":[],"outputs":[{"name":"","type":"address","internalType":"address"}],"stateMutability":"view"},{"type":"function","name":"safeTransferFrom","inputs":[{"name":"from","type":"address","internalType":"address"},{"name":"to","type":"address","internalType":"address"},{"name":"tokenId","type":"uint256","internalType":"uint256"}],"outputs":[],"stateMutability":"nonpayable"},{"type":"function","name":"safeTransferFrom","inputs":[{"name":"from","type":"address","internalType":"address"},{"name":"to","type":"address","internalType":"address"},{"name":"tokenId","type":"uint256","internalType":"uint256"},{"name":"data","type":"bytes","internalType":"bytes"}],"outputs":[],"stateMutability":"nonpayable"},{"type":"function","name":"setApprovalForAll","inputs":[{"name":"operator","type":"address","internalType":"address"},{"name":"approved","type":"bool","internalType":"bool"}],"outputs":[],"stateMutability":"nonpayable"},{"type":"function","name":"setRevenueReceiver","inputs":[{"name":"tokenId","type":"uint256","internalType":"uint256"},{"name":"receiver","type":"address","internalType":"address"}],"outputs":[],"stateMutability":"nonpayable"},{"type":"function","name":"supportsInterface","inputs":[{"name":"interfaceId","type":"bytes4","internalType":"bytes4"}],"outputs":[{"name":"","type":"bool","internalType":"bool"}],"stateMutability":"view"},{"type":"function","name":"symbol","inputs":[],"outputs":[{"name":"","type":"string","internalType":"string"}],"stateMutability":"view"},{"type":"function","name":"tokenByIndex","inputs":[{"name":"index","type":"uint256","internalType":"uint256"}],"outputs":[{"name":"","type":"uint256","internalType":"uint256"}],"stateMutability":"view"},{"type":"function","name":"tokenOfOwnerByIndex","inputs":[{"name":"owner","type":"address","internalType":"address"},{"name":"index","type":"uint256","internalType":"uint256"}],"outputs":[{"name":"","type":"uint256","internalType":"uint256"}],"stateMutability":"view"},{"type":"function","name":"tokenStrategyLogic","inputs":[{"name":"tokenId","type":"uint256","internalType":"uint256"}],"outputs":[{"name":"strategyLogicId","type":"string","internalType":"string"}],"stateMutability":"view"},{"type":"function","name":"tokenURI","inputs":[{"name":"tokenId","type":"uint256","internalType":"uint256"}],"outputs":[{"name":"","type":"string","internalType":"string"}],"stateMutability":"view"},{"type":"function","name":"totalSupply","inputs":[],"outputs":[{"name":"","type":"uint256","internalType":"uint256"}],"stateMutability":"view"},{"type":"function","name":"transferFrom","inputs":[{"name":"from","type":"address","internalType":"address"},{"name":"to","type":"address","internalType":"address"},{"name":"tokenId","type":"uint256","internalType":"uint256"}],"outputs":[],"stateMutability":"nonpayable"},{"type":"event","name":"Approval","inputs":[{"name":"owner","type":"address","indexed":true,"internalType":"address"},{"name":"approved","type":"address","indexed":true,"internalType":"address"},{"name":"tokenId","type":"uint256","indexed":true,"internalType":"uint256"}],"anonymous":false},{"type":"event","name":"ApprovalForAll","inputs":[{"name":"owner","type":"address","indexed":true,"internalType":"address"},{"name":"operator","type":"address","indexed":true,"internalType":"address"},{"name":"approved","type":"bool","indexed":false,"internalType":"bool"}],"anonymous":false},{"type":"event","name":"ContractInitialized","inputs":[{"name":"platform","type":"address","indexed":false,"internalType":"address"},{"name":"ts","type":"uint256","indexed":false,"internalType":"uint256"},{"name":"block","type":"uint256","indexed":false,"internalType":"uint256"}],"anonymous":false},{"type":"event","name":"Initialized","inputs":[{"name":"version","type":"uint64","indexed":false,"internalType":"uint64"}],"anonymous":false},{"type":"event","name":"SetRevenueReceiver","inputs":[{"name":"tokenId","type":"uint256","indexed":false,"internalType":"uint256"},{"name":"receiver","type":"address","indexed":false,"internalType":"address"}],"anonymous":false},{"type":"event","name":"Transfer","inputs":[{"name":"from","type":"address","indexed":true,"internalType":"address"},{"name":"to","type":"address","indexed":true,"internalType":"address"},{"name":"tokenId","type":"uint256","indexed":true,"internalType":"uint256"}],"anonymous":false},{"type":"error","name":"AlreadyExist","inputs":[]},{"type":"error","name":"ERC721EnumerableForbiddenBatchMint","inputs":[]},{"type":"error","name":"ERC721IncorrectOwner","inputs":[{"name":"sender","type":"address","internalType":"address"},{"name":"tokenId","type":"uint256","internalType":"uint256"},{"name":"owner","type":"address","internalType":"address"}]},{"type":"error","name":"ERC721InsufficientApproval","inputs":[{"name":"operator","type":"address","internalType":"address"},{"name":"tokenId","type":"uint256","internalType":"uint256"}]},{"type":"error","name":"ERC721InvalidApprover","inputs":[{"name":"approver","type":"address","internalType":"address"}]},{"type":"error","name":"ERC721InvalidOperator","inputs":[{"name":"operator","type":"address","internalType":"address"}]},{"type":"error","name":"ERC721InvalidOwner","inputs":[{"name":"owner","type":"address","internalType":"address"}]},{"type":"error","name":"ERC721InvalidReceiver","inputs":[{"name":"receiver","type":"address","internalType":"address"}]},{"type":"error","name":"ERC721InvalidSender","inputs":[{"name":"sender","type":"address","internalType":"address"}]},{"type":"error","name":"ERC721NonexistentToken","inputs":[{"name":"tokenId","type":"uint256","internalType":"uint256"}]},{"type":"error","name":"ERC721OutOfBoundsIndex","inputs":[{"name":"owner","type":"address","internalType":"address"},{"name":"index","type":"uint256","internalType":"uint256"}]},{"type":"error","name":"ETHTransferFailed","inputs":[]},{"type":"error","name":"IncorrectArrayLength","inputs":[]},{"type":"error","name":"IncorrectInitParams","inputs":[]},{"type":"error","name":"IncorrectMsgSender","inputs":[]},{"type":"error","name":"IncorrectZeroArgument","inputs":[]},{"type":"error","name":"InvalidInitialization","inputs":[]},{"type":"error","name":"NotExist","inputs":[]},{"type":"error","name":"NotFactory","inputs":[]},{"type":"error","name":"NotGovernance","inputs":[]},{"type":"error","name":"NotGovernanceAndNotMultisig","inputs":[]},{"type":"error","name":"NotInitializing","inputs":[]},{"type":"error","name":"NotMultisig","inputs":[]},{"type":"error","name":"NotOperator","inputs":[]},{"type":"error","name":"NotPlatform","inputs":[]},{"type":"error","name":"NotTheOwner","inputs":[]},{"type":"error","name":"NotVault","inputs":[]},{"type":"error","name":"RewardIsTooBig","inputs":[]},{"type":"error","name":"RewardIsTooSmall","inputs":[]}],"bytecode":{"object":"0x608060405234801561001057600080fd5b5061001961001e565b6100d0565b7ff0c57e16840df040f15088dc2f81fe391c3923bec73e23a9662efc9c229c6a00805468010000000000000000900460ff161561006e5760405163f92ee8a960e01b815260040160405180910390fd5b80546001600160401b03908116146100cd5780546001600160401b0319166001600160401b0390811782556040519081527fc7f505b2f371ae2175ee4913f4499e1f2633a7b5936321eed1cdaeb6115181d29060200160405180910390a15b50565b6123fc80620000e06000396000f3fe608060405234801561001057600080fd5b50600436106101735760003560e01c80634f6ccce7116100de578063a22cb46511610097578063c87b56dd11610071578063c87b56dd14610334578063d0def52114610347578063e985e9c51461035a578063ffa1ad74146102cf57600080fd5b8063a22cb465146102fb578063b5802f731461030e578063b88d4fde1461032157600080fd5b80634f6ccce71461028357806351dd2ade146102965780636352211e146102a957806370a08231146102bc578063936725ec146102cf57806395d89b41146102f357600080fd5b806323b872dd1161013057806323b872dd146102275780632f745c591461023a5780633ccf45f41461024d57806342842e0e146102605780634593144c146102735780634bde38c81461027b57600080fd5b806301ffc9a71461017857806306fdde03146101a0578063081812fc146101b5578063095ea7b3146101e057806318160ddd146101f557806319ab453c14610214575b600080fd5b61018b610186366004611ab0565b61036d565b60405190151581526020015b60405180910390f35b6101a86103b3565b6040516101979190611b24565b6101c86101c3366004611b37565b610457565b6040516001600160a01b039091168152602001610197565b6101f36101ee366004611b65565b61046c565b005b6000805160206123a7833981519152545b604051908152602001610197565b6101f3610222366004611b91565b61047b565b6101f3610235366004611bae565b6105db565b610206610248366004611b65565b61066b565b6101c861025b366004611b37565b6106df565b6101f361026e366004611bae565b61073c565b61020661075c565b6101c8610795565b610206610291366004611b37565b6107c5565b6101a86102a4366004611b37565b61083d565b6101c86102b7366004611b37565b6108f1565b6102066102ca366004611b91565b6108fc565b6101a8604051806040016040528060058152602001640312e302e360dc1b81525081565b6101a8610958565b6101f3610309366004611bfd565b610997565b6101f361031c366004611c36565b6109a2565b6101f361032f366004611d55565b610a68565b6101a8610342366004611b37565b610a7f565b610206610355366004611dd5565b610e44565b61018b610368366004611e39565b610ea0565b60006001600160e01b0319821663010996af60e31b148061039e57506001600160e01b03198216630f1ec81f60e41b145b806103ad57506103ad82610eed565b92915050565b60008051602061236783398151915280546060919081906103d390611e67565b80601f01602080910402602001604051908101604052809291908181526020018280546103ff90611e67565b801561044c5780601f106104215761010080835404028352916020019161044c565b820191906000526020600020905b81548152906001019060200180831161042f57829003601f168201915b505050505091505090565b600061046282610f12565b506103ad82610f4a565b610477828233610f84565b5050565b7ff0c57e16840df040f15088dc2f81fe391c3923bec73e23a9662efc9c229c6a008054600160401b810460ff16159067ffffffffffffffff166000811580156104c15750825b905060008267ffffffffffffffff1660011480156104de5750303b155b9050811580156104ec575080155b1561050a5760405163f92ee8a960e01b815260040160405180910390fd5b845467ffffffffffffffff19166001178555831561053457845460ff60401b1916600160401b1785555b61053d86610f91565b61058d6040518060400160405280600e81526020016d5374726174656779204c6f67696360901b81525060405180604001604052806008815260200167535452415445475960c01b8152506110ef565b83156105d357845460ff60401b19168555604051600181527fc7f505b2f371ae2175ee4913f4499e1f2633a7b5936321eed1cdaeb6115181d29060200160405180910390a15b505050505050565b6001600160a01b03821661060a57604051633250574960e11b8152600060048201526024015b60405180910390fd5b6000610617838333611101565b9050836001600160a01b0316816001600160a01b031614610665576040516364283d7b60e01b81526001600160a01b0380861660048301526024820184905282166044820152606401610601565b50505050565b6000600080516020612347833981519152610685846108fc565b83106106b65760405163295f44f760e21b81526001600160a01b038516600482015260248101849052604401610601565b6001600160a01b0384166000908152602091825260408082208583529092522054905092915050565b60008181527f6e9c56d392637a53a86185fd13e3616947723bd87b0aa4ceb3748b95873c8c0160205260409020546001600160a01b0316600080516020612387833981519152816107365761073383611202565b91505b50919050565b61075783838360405180602001604052806000815250610a68565b505050565b600061079061078c60017f812a673dfca07956350df10f8a654925f561d7a0da09bdbe79e653939a14d9f1611e9b565b5490565b905090565b600061079061078c60017faa116a42804728f23983458454b6eb9c6ddf3011db9f9addaf3cd7508d85b0d6611e9b565b60006000805160206123478339815191526107ec6000805160206123a78339815191525490565b83106108155760405163295f44f760e21b81526000600482015260248101849052604401610601565b80600201838154811061082a5761082a611ebc565b9060005260206000200154915050919050565b6000818152600080516020612387833981519152602081905260409091208054606092919061086b90611e67565b80601f016020809104026020016040519081016040528092919081815260200182805461089790611e67565b80156108e45780601f106108b9576101008083540402835291602001916108e4565b820191906000526020600020905b8154815290600101906020018083116108c757829003601f168201915b5050505050915050919050565b60006103ad82610f12565b60006000805160206123678339815191526001600160a01b038316610937576040516322718ad960e21b815260006004820152602401610601565b6001600160a01b039092166000908152600390920160205250604090205490565b7f80bb2b638cc20bc4d0a60d66940f3ab4a00c1d7b313497ca82fb0b4ab00793018054606091600080516020612367833981519152916103d390611e67565b61047733838361123c565b336109ac83611202565b6001600160a01b0316146109d3576040516336b6b89560e01b815260040160405180910390fd5b60008281527f6e9c56d392637a53a86185fd13e3616947723bd87b0aa4ceb3748b95873c8c01602090815260409182902080546001600160a01b0319166001600160a01b0385169081179091558251858152918201528151600080516020612387833981519152927fa83e8967b7ce26c82b43a0fc5e46f1a242fd5341151c6f7c098efe8d485b4e56928290030190a1505050565b610a738484846105db565b610665848484846112ed565b60606000610a8c83611202565b6001600160a01b031603610ab35760405163ad5679e160e01b815260040160405180910390fd5b6040805160608082018352600080835260208084019290925282840181905285815260008051602061238783398151915291829052929092208054610af790611e67565b80601f0160208091040260200160405190810160405280929190818152602001828054610b2390611e67565b8015610b705780601f10610b4557610100808354040283529160200191610b70565b820191906000526020600020905b815481529060010190602001808311610b5357829003601f168201915b505050505081602001819052506000610b87610795565b90506000816001600160a01b031663c45a01556040518163ffffffff1660e01b8152600401602060405180830381865afa158015610bc9573d6000803e3d6000fd5b505050506040513d601f19601f82011682018060405250810190610bed9190611ed2565b90506000816001600160a01b031663c56ebcd68560200151805190602001206040518263ffffffff1660e01b8152600401610c2a91815260200190565b600060405180830381865afa158015610c47573d6000803e3d6000fd5b505050506040513d6000823e601f3d908101601f19168201604052610c6f9190810190611f44565b60208082015160a083015187526040805162c8012760e51b8152905193945090926001600160a01b0384169263190024e092600480820193918290030181865afa158015610cc1573d6000803e3d6000fd5b505050506040513d601f19601f82011682018060405250810190610ce59190612011565b85604001818152505073__$5310fb16662e0ed73b43e7de9e404623b1$__6304a7427e86866001600160a01b031663a8f43c676040518163ffffffff1660e01b8152600401600060405180830381865afa158015610d47573d6000803e3d6000fd5b505050506040513d6000823e601f3d908101601f19168201604052610d6f919081019061202a565b876001600160a01b03166335157a586040518163ffffffff1660e01b8152600401600060405180830381865afa158015610dad573d6000803e3d6000fd5b505050506040513d6000823e601f3d908101601f19168201604052610dd5919081019061205f565b6040518463ffffffff1660e01b8152600401610df393929190612116565b600060405180830381865af4158015610e10573d6000803e3d6000fd5b505050506040513d6000823e601f3d908101601f19168201604052610e38919081019061202a565b98975050505050505050565b6000610e4e611416565b600080516020612387833981519152610e736000805160206123a78339815191525490565b6000818152602083905260409020909250610e8e8482612216565b50610e9984836114a9565b5092915050565b6001600160a01b0391821660009081527f80bb2b638cc20bc4d0a60d66940f3ab4a00c1d7b313497ca82fb0b4ab00793056020908152604080832093909416825291909152205460ff1690565b60006001600160e01b0319821663780e9d6360e01b14806103ad57506103ad8261150e565b600080610f1e83611202565b90506001600160a01b0381166103ad57604051637e27328960e01b815260048101849052602401610601565b60009081527f80bb2b638cc20bc4d0a60d66940f3ab4a00c1d7b313497ca82fb0b4ab007930460205260409020546001600160a01b031690565b610757838383600161155e565b610f99611674565b6001600160a01b0381161580611022575060006001600160a01b0316816001600160a01b0316634783c35b6040518163ffffffff1660e01b8152600401602060405180830381865afa158015610ff3573d6000803e3d6000fd5b505050506040513d601f19601f820116820180604052508101906110179190611ed2565b6001600160a01b0316145b15611040576040516371c42ac360e01b815260040160405180910390fd5b61107361106e60017faa116a42804728f23983458454b6eb9c6ddf3011db9f9addaf3cd7508d85b0d6611e9b565b829055565b6110a5436110a260017f812a673dfca07956350df10f8a654925f561d7a0da09bdbe79e653939a14d9f1611e9b565b55565b604080516001600160a01b0383168152426020820152438183015290517f1a2dd071001ebf6e03174e3df5b305795a4ad5d41d8fdb9ba41dbbe2367134269181900360600190a150565b6110f7611674565b61047782826116bd565b60008061110f8585856116ee565b90506001600160a01b03811661119857611193846000805160206123a7833981519152805460008381527f645e039705490088daad89bae25049a34f4a9072d398537b1ab2425f24cbed0360205260408120829055600182018355919091527fa42f15e5d656f8155fd7419d740a6073999f19cd6e061449ce4a257150545bf20155565b6111bb565b846001600160a01b0316816001600160a01b0316146111bb576111bb81856117f8565b6001600160a01b0385166111d7576111d28461189c565b6111fa565b846001600160a01b0316816001600160a01b0316146111fa576111fa8585611973565b949350505050565b60009081527f80bb2b638cc20bc4d0a60d66940f3ab4a00c1d7b313497ca82fb0b4ab007930260205260409020546001600160a01b031690565b6000805160206123678339815191526001600160a01b03831661127d57604051630b61174360e31b81526001600160a01b0384166004820152602401610601565b6001600160a01b038481166000818152600584016020908152604080832094881680845294825291829020805460ff191687151590811790915591519182527f17307eab39ab6107e8899845ad3d59bd9653f200f220920489ca2b5937696c31910160405180910390a350505050565b6001600160a01b0383163b1561066557604051630a85bd0160e11b81526001600160a01b0384169063150b7a029061132f9033908890879087906004016122d6565b6020604051808303816000875af192505050801561136a575060408051601f3d908101601f1916820190925261136791810190612313565b60015b6113d3573d808015611398576040519150601f19603f3d011682016040523d82523d6000602084013e61139d565b606091505b5080516000036113cb57604051633250574960e11b81526001600160a01b0385166004820152602401610601565b805181602001fd5b6001600160e01b03198116630a85bd0160e11b1461140f57604051633250574960e11b81526001600160a01b0385166004820152602401610601565b5050505050565b3361141f610795565b6001600160a01b031663c45a01556040518163ffffffff1660e01b8152600401602060405180830381865afa15801561145c573d6000803e3d6000fd5b505050506040513d601f19601f820116820180604052508101906114809190611ed2565b6001600160a01b0316146114a757604051631966391b60e11b815260040160405180910390fd5b565b6001600160a01b0382166114d357604051633250574960e11b815260006004820152602401610601565b60006114e183836000611101565b90506001600160a01b03811615610757576040516339e3563760e11b815260006004820152602401610601565b60006001600160e01b031982166380ac58cd60e01b148061153f57506001600160e01b03198216635b5e139f60e01b145b806103ad57506301ffc9a760e01b6001600160e01b03198316146103ad565b600080516020612367833981519152818061158157506001600160a01b03831615155b1561164357600061159185610f12565b90506001600160a01b038416158015906115bd5750836001600160a01b0316816001600160a01b031614155b80156115d057506115ce8185610ea0565b155b156115f95760405163a9fbf51f60e01b81526001600160a01b0385166004820152602401610601565b82156116415784866001600160a01b0316826001600160a01b03167f8c5be1e5ebec7d5bd14f71427d1e84f3dd0314c0f7b2291e5b200ac8c7c3b92560405160405180910390a45b505b600093845260040160205250506040902080546001600160a01b0319166001600160a01b0392909216919091179055565b7ff0c57e16840df040f15088dc2f81fe391c3923bec73e23a9662efc9c229c6a0054600160401b900460ff166114a757604051631afcd79f60e31b815260040160405180910390fd5b6116c5611674565b600080516020612367833981519152806116df8482612216565b50600181016106658382612216565b60006000805160206123678339815191528161170985611202565b90506001600160a01b03841615611725576117258185876119ce565b6001600160a01b038116156117655761174260008660008061155e565b6001600160a01b0381166000908152600383016020526040902080546000190190555b6001600160a01b03861615611796576001600160a01b03861660009081526003830160205260409020805460010190555b600085815260028301602052604080822080546001600160a01b0319166001600160a01b038a811691821790925591518893918516917fddf252ad1be2c89b69c2b068fc378daa952ba7f163c4a11628f55a4df523b3ef91a495945050505050565b6000805160206123478339815191526000611812846108fc565b6000848152600184016020526040902054909150808214611867576001600160a01b03851660009081526020848152604080832085845282528083205484845281842081905583526001860190915290208190555b50600092835260018201602090815260408085208590556001600160a01b039095168452918252838320908352905290812055565b6000805160206123a783398151915254600080516020612347833981519152906000906118cb90600190611e9b565b60008481526003840160205260408120546002850180549394509092849081106118f7576118f7611ebc565b906000526020600020015490508084600201838154811061191a5761191a611ebc565b60009182526020808320909101929092558281526003860190915260408082208490558682528120556002840180548061195657611956612330565b600190038181906000526020600020016000905590555050505050565b6000805160206123478339815191526000600161198f856108fc565b6119999190611e9b565b6001600160a01b0390941660009081526020838152604080832087845282528083208690559482526001909301909252502055565b6119d9838383611a32565b610757576001600160a01b038316611a0757604051637e27328960e01b815260048101829052602401610601565b60405163177e802f60e01b81526001600160a01b038316600482015260248101829052604401610601565b60006001600160a01b038316158015906111fa5750826001600160a01b0316846001600160a01b03161480611a6c5750611a6c8484610ea0565b806111fa5750826001600160a01b0316611a8583610f4a565b6001600160a01b031614949350505050565b6001600160e01b031981168114611aad57600080fd5b50565b600060208284031215611ac257600080fd5b8135611acd81611a97565b9392505050565b60005b83811015611aef578181015183820152602001611ad7565b50506000910152565b60008151808452611b10816020860160208601611ad4565b601f01601f19169290920160200192915050565b602081526000611acd6020830184611af8565b600060208284031215611b4957600080fd5b5035919050565b6001600160a01b0381168114611aad57600080fd5b60008060408385031215611b7857600080fd5b8235611b8381611b50565b946020939093013593505050565b600060208284031215611ba357600080fd5b8135611acd81611b50565b600080600060608486031215611bc357600080fd5b8335611bce81611b50565b92506020840135611bde81611b50565b929592945050506040919091013590565b8015158114611aad57600080fd5b60008060408385031215611c1057600080fd5b8235611c1b81611b50565b91506020830135611c2b81611bef565b809150509250929050565b60008060408385031215611c4957600080fd5b823591506020830135611c2b81611b50565b634e487b7160e01b600052604160045260246000fd5b60405160c0810167ffffffffffffffff81118282101715611c9457611c94611c5b565b60405290565b604051610100810167ffffffffffffffff81118282101715611c9457611c94611c5b565b604051601f8201601f1916810167ffffffffffffffff81118282101715611ce757611ce7611c5b565b604052919050565b600067ffffffffffffffff821115611d0957611d09611c5b565b50601f01601f191660200190565b6000611d2a611d2584611cef565b611cbe565b9050828152838383011115611d3e57600080fd5b828260208301376000602084830101529392505050565b60008060008060808587031215611d6b57600080fd5b8435611d7681611b50565b93506020850135611d8681611b50565b925060408501359150606085013567ffffffffffffffff811115611da957600080fd5b8501601f81018713611dba57600080fd5b611dc987823560208401611d17565b91505092959194509250565b60008060408385031215611de857600080fd5b8235611df381611b50565b9150602083013567ffffffffffffffff811115611e0f57600080fd5b8301601f81018513611e2057600080fd5b611e2f85823560208401611d17565b9150509250929050565b60008060408385031215611e4c57600080fd5b8235611e5781611b50565b91506020830135611c2b81611b50565b600181811c90821680611e7b57607f821691505b60208210810361073657634e487b7160e01b600052602260045260246000fd5b818103818111156103ad57634e487b7160e01b600052601160045260246000fd5b634e487b7160e01b600052603260045260246000fd5b600060208284031215611ee457600080fd5b8151611acd81611b50565b600082601f830112611f0057600080fd5b8151611f0e611d2582611cef565b818152846020838601011115611f2357600080fd5b6111fa826020830160208701611ad4565b8051611f3f81611bef565b919050565b600060208284031215611f5657600080fd5b815167ffffffffffffffff80821115611f6e57600080fd5b9083019060c08286031215611f8257600080fd5b611f8a611c71565b825182811115611f9957600080fd5b611fa587828601611eef565b82525060208301519150611fb882611b50565b81602082015260408301519150611fce82611bef565b81604082015260608301519150611fe482611bef565b816060820152611ff660808401611f34565b608082015260a083015160a082015280935050505092915050565b60006020828403121561202357600080fd5b5051919050565b60006020828403121561203c57600080fd5b815167ffffffffffffffff81111561205357600080fd5b6111fa84828501611eef565b60006020828403121561207157600080fd5b815167ffffffffffffffff8082111561208957600080fd5b90830190610100828603121561209e57600080fd5b6120a6611c9a565b8251828111156120b557600080fd5b6120c187828601611eef565b8252506020830151602082015260408301516040820152606083015160608201526080830151608082015260a083015160a082015260c083015160c082015260e083015160e082015280935050505092915050565b6060815283516060820152600060208501516060608084015261213c60c0840182611af8565b9050604086015160a0840152828103602084015261215a8186611af8565b90508281036040840152610100845181835261217882840182611af8565b9150506020850151602083015260408501516040830152606085015160608301526080850151608083015260a085015160a083015260c085015160c083015260e085015160e08301528092505050949350505050565b601f821115610757576000816000526020600020601f850160051c810160208610156121f75750805b601f850160051c820191505b818110156105d357828155600101612203565b815167ffffffffffffffff81111561223057612230611c5b565b6122448161223e8454611e67565b846121ce565b602080601f83116001811461227957600084156122615750858301515b600019600386901b1c1916600185901b1785556105d3565b600085815260208120601f198616915b828110156122a857888601518255948401946001909101908401612289565b50858210156122c65787850151600019600388901b60f8161c191681555b5050505050600190811b01905550565b6001600160a01b038581168252841660208201526040810183905260806060820181905260009061230990830184611af8565b9695505050505050565b60006020828403121561232557600080fd5b8151611acd81611a97565b634e487b7160e01b600052603160045260246000fdfe645e039705490088daad89bae25049a34f4a9072d398537b1ab2425f24cbed0080bb2b638cc20bc4d0a60d66940f3ab4a00c1d7b313497ca82fb0b4ab00793006e9c56d392637a53a86185fd13e3616947723bd87b0aa4ceb3748b95873c8c00645e039705490088daad89bae25049a34f4a9072d398537b1ab2425f24cbed02a2646970667358221220064056fdf3e8362a948ee7606345bff8975b8fe64e1f97dc63bcbe85e94d446e64736f6c63430008170033","linkReferences":{"src/core/libs/StrategyLogicLib.sol":{"StrategyLogicLib":[{"start":3536,"length":20}]}}},"methodIdentifiers":{"CONTROLLABLE_VERSION()":"936725ec","VERSION()":"ffa1ad74","approve(address,uint256)":"095ea7b3","balanceOf(address)":"70a08231","createdBlock()":"4593144c","getApproved(uint256)":"081812fc","getRevenueReceiver(uint256)":"3ccf45f4","init(address)":"19ab453c","isApprovedForAll(address,address)":"e985e9c5","mint(address,string)":"d0def521","name()":"06fdde03","ownerOf(uint256)":"6352211e","platform()":"4bde38c8","safeTransferFrom(address,address,uint256)":"42842e0e","safeTransferFrom(address,address,uint256,bytes)":"b88d4fde","setApprovalForAll(address,bool)":"a22cb465","setRevenueReceiver(uint256,address)":"b5802f73","supportsInterface(bytes4)":"01ffc9a7","symbol()":"95d89b41","tokenByIndex(uint256)":"4f6ccce7","tokenOfOwnerByIndex(address,uint256)":"2f745c59","tokenStrategyLogic(uint256)":"51dd2ade","tokenURI(uint256)":"c87b56dd","totalSupply()":"18160ddd","transferFrom(address,address,uint256)":"23b872dd"},"id":62}