{"abi":[{"type":"function","name":"CONTROLLABLE_VERSION","inputs":[],"outputs":[{"name":"","type":"string","internalType":"string"}],"stateMutability":"view"},{"type":"function","name":"VERSION","inputs":[],"outputs":[{"name":"","type":"string","internalType":"string"}],"stateMutability":"view"},{"type":"function","name":"approve","inputs":[{"name":"to","type":"address","internalType":"address"},{"name":"tokenId","type":"uint256","internalType":"uint256"}],"outputs":[],"stateMutability":"nonpayable"},{"type":"function","name":"balanceOf","inputs":[{"name":"owner","type":"address","internalType":"address"}],"outputs":[{"name":"","type":"uint256","internalType":"uint256"}],"stateMutability":"view"},{"type":"function","name":"changeVaultParams","inputs":[{"name":"tokenId","type":"uint256","internalType":"uint256"},{"name":"addresses","type":"address[]","internalType":"address[]"},{"name":"nums","type":"uint256[]","internalType":"uint256[]"}],"outputs":[],"stateMutability":"nonpayable"},{"type":"function","name":"createdBlock","inputs":[],"outputs":[{"name":"","type":"uint256","internalType":"uint256"}],"stateMutability":"view"},{"type":"function","name":"getApproved","inputs":[{"name":"tokenId","type":"uint256","internalType":"uint256"}],"outputs":[{"name":"","type":"address","internalType":"address"}],"stateMutability":"view"},{"type":"function","name":"getRevenueReceiver","inputs":[{"name":"tokenId","type":"uint256","internalType":"uint256"}],"outputs":[{"name":"receiver","type":"address","internalType":"address"}],"stateMutability":"view"},{"type":"function","name":"init","inputs":[{"name":"platform_","type":"address","internalType":"address"}],"outputs":[],"stateMutability":"nonpayable"},{"type":"function","name":"isApprovedForAll","inputs":[{"name":"owner","type":"address","internalType":"address"},{"name":"operator","type":"address","internalType":"address"}],"outputs":[{"name":"","type":"bool","internalType":"bool"}],"stateMutability":"view"},{"type":"function","name":"mint","inputs":[{"name":"to","type":"address","internalType":"address"},{"name":"vault","type":"address","internalType":"address"}],"outputs":[{"name":"tokenId","type":"uint256","internalType":"uint256"}],"stateMutability":"nonpayable"},{"type":"function","name":"name","inputs":[],"outputs":[{"name":"","type":"string","internalType":"string"}],"stateMutability":"view"},{"type":"function","name":"ownerOf","inputs":[{"name":"tokenId","type":"uint256","internalType":"uint256"}],"outputs":[{"name":"","type":"address","internalType":"address"}],"stateMutability":"view"},{"type":"function","name":"platform","inputs":[],"outputs":[{"name":"","type":"address","internalType":"address"}],"stateMutability":"view"},{"type":"function","name":"safeTransferFrom","inputs":[{"name":"from","type":"address","internalType":"address"},{"name":"to","type":"address","internalType":"address"},{"name":"tokenId","type":"uint256","internalType":"uint256"}],"outputs":[],"stateMutability":"nonpayable"},{"type":"function","name":"safeTransferFrom","inputs":[{"name":"from","type":"address","internalType":"address"},{"name":"to","type":"address","internalType":"address"},{"name":"tokenId","type":"uint256","internalType":"uint256"},{"name":"data","type":"bytes","internalType":"bytes"}],"outputs":[],"stateMutability":"nonpayable"},{"type":"function","name":"setApprovalForAll","inputs":[{"name":"operator","type":"address","internalType":"address"},{"name":"approved","type":"bool","internalType":"bool"}],"outputs":[],"stateMutability":"nonpayable"},{"type":"function","name":"setRevenueReceiver","inputs":[{"name":"tokenId","type":"uint256","internalType":"uint256"},{"name":"receiver","type":"address","internalType":"address"}],"outputs":[],"stateMutability":"nonpayable"},{"type":"function","name":"supportsInterface","inputs":[{"name":"interfaceId","type":"bytes4","internalType":"bytes4"}],"outputs":[{"name":"","type":"bool","internalType":"bool"}],"stateMutability":"view"},{"type":"function","name":"symbol","inputs":[],"outputs":[{"name":"","type":"string","internalType":"string"}],"stateMutability":"view"},{"type":"function","name":"tokenByIndex","inputs":[{"name":"index","type":"uint256","internalType":"uint256"}],"outputs":[{"name":"","type":"uint256","internalType":"uint256"}],"stateMutability":"view"},{"type":"function","name":"tokenOfOwnerByIndex","inputs":[{"name":"owner","type":"address","internalType":"address"},{"name":"index","type":"uint256","internalType":"uint256"}],"outputs":[{"name":"","type":"uint256","internalType":"uint256"}],"stateMutability":"view"},{"type":"function","name":"tokenURI","inputs":[{"name":"tokenId","type":"uint256","internalType":"uint256"}],"outputs":[{"name":"","type":"string","internalType":"string"}],"stateMutability":"view"},{"type":"function","name":"tokenVault","inputs":[{"name":"tokenId","type":"uint256","internalType":"uint256"}],"outputs":[{"name":"vault","type":"address","internalType":"address"}],"stateMutability":"view"},{"type":"function","name":"totalSupply","inputs":[],"outputs":[{"name":"","type":"uint256","internalType":"uint256"}],"stateMutability":"view"},{"type":"function","name":"transferFrom","inputs":[{"name":"from","type":"address","internalType":"address"},{"name":"to","type":"address","internalType":"address"},{"name":"tokenId","type":"uint256","internalType":"uint256"}],"outputs":[],"stateMutability":"nonpayable"},{"type":"function","name":"vaultAddresses","inputs":[],"outputs":[{"name":"vaultAddress","type":"address[]","internalType":"address[]"}],"stateMutability":"view"},{"type":"function","name":"vaultInfo","inputs":[{"name":"vault","type":"address","internalType":"address"}],"outputs":[{"name":"strategy","type":"address","internalType":"address"},{"name":"strategyAssets","type":"address[]","internalType":"address[]"},{"name":"underlying","type":"address","internalType":"address"},{"name":"assetsWithApr","type":"address[]","internalType":"address[]"},{"name":"assetsAprs","type":"uint256[]","internalType":"uint256[]"},{"name":"lastHardWork","type":"uint256","internalType":"uint256"}],"stateMutability":"view"},{"type":"function","name":"vaults","inputs":[],"outputs":[{"name":"vaultAddress","type":"address[]","internalType":"address[]"},{"name":"name","type":"string[]","internalType":"string[]"},{"name":"symbol","type":"string[]","internalType":"string[]"},{"name":"vaultType","type":"string[]","internalType":"string[]"},{"name":"strategyId","type":"string[]","internalType":"string[]"},{"name":"sharePrice","type":"uint256[]","internalType":"uint256[]"},{"name":"tvl","type":"uint256[]","internalType":"uint256[]"},{"name":"totalApr","type":"uint256[]","internalType":"uint256[]"},{"name":"strategyApr","type":"uint256[]","internalType":"uint256[]"},{"name":"strategySpecific","type":"string[]","internalType":"string[]"}],"stateMutability":"view"},{"type":"event","name":"Approval","inputs":[{"name":"owner","type":"address","indexed":true,"internalType":"address"},{"name":"approved","type":"address","indexed":true,"internalType":"address"},{"name":"tokenId","type":"uint256","indexed":true,"internalType":"uint256"}],"anonymous":false},{"type":"event","name":"ApprovalForAll","inputs":[{"name":"owner","type":"address","indexed":true,"internalType":"address"},{"name":"operator","type":"address","indexed":true,"internalType":"address"},{"name":"approved","type":"bool","indexed":false,"internalType":"bool"}],"anonymous":false},{"type":"event","name":"ChangeVaultParams","inputs":[{"name":"tokenId","type":"uint256","indexed":false,"internalType":"uint256"},{"name":"addresses","type":"address[]","indexed":false,"internalType":"address[]"},{"name":"nums","type":"uint256[]","indexed":false,"internalType":"uint256[]"}],"anonymous":false},{"type":"event","name":"ContractInitialized","inputs":[{"name":"platform","type":"address","indexed":false,"internalType":"address"},{"name":"ts","type":"uint256","indexed":false,"internalType":"uint256"},{"name":"block","type":"uint256","indexed":false,"internalType":"uint256"}],"anonymous":false},{"type":"event","name":"Initialized","inputs":[{"name":"version","type":"uint64","indexed":false,"internalType":"uint64"}],"anonymous":false},{"type":"event","name":"SetRevenueReceiver","inputs":[{"name":"tokenId","type":"uint256","indexed":false,"internalType":"uint256"},{"name":"receiver","type":"address","indexed":false,"internalType":"address"}],"anonymous":false},{"type":"event","name":"Transfer","inputs":[{"name":"from","type":"address","indexed":true,"internalType":"address"},{"name":"to","type":"address","indexed":true,"internalType":"address"},{"name":"tokenId","type":"uint256","indexed":true,"internalType":"uint256"}],"anonymous":false},{"type":"error","name":"AlreadyExist","inputs":[]},{"type":"error","name":"ERC721EnumerableForbiddenBatchMint","inputs":[]},{"type":"error","name":"ERC721IncorrectOwner","inputs":[{"name":"sender","type":"address","internalType":"address"},{"name":"tokenId","type":"uint256","internalType":"uint256"},{"name":"owner","type":"address","internalType":"address"}]},{"type":"error","name":"ERC721InsufficientApproval","inputs":[{"name":"operator","type":"address","internalType":"address"},{"name":"tokenId","type":"uint256","internalType":"uint256"}]},{"type":"error","name":"ERC721InvalidApprover","inputs":[{"name":"approver","type":"address","internalType":"address"}]},{"type":"error","name":"ERC721InvalidOperator","inputs":[{"name":"operator","type":"address","internalType":"address"}]},{"type":"error","name":"ERC721InvalidOwner","inputs":[{"name":"owner","type":"address","internalType":"address"}]},{"type":"error","name":"ERC721InvalidReceiver","inputs":[{"name":"receiver","type":"address","internalType":"address"}]},{"type":"error","name":"ERC721InvalidSender","inputs":[{"name":"sender","type":"address","internalType":"address"}]},{"type":"error","name":"ERC721NonexistentToken","inputs":[{"name":"tokenId","type":"uint256","internalType":"uint256"}]},{"type":"error","name":"ERC721OutOfBoundsIndex","inputs":[{"name":"owner","type":"address","internalType":"address"},{"name":"index","type":"uint256","internalType":"uint256"}]},{"type":"error","name":"ETHTransferFailed","inputs":[]},{"type":"error","name":"IncorrectArrayLength","inputs":[]},{"type":"error","name":"IncorrectInitParams","inputs":[]},{"type":"error","name":"IncorrectMsgSender","inputs":[]},{"type":"error","name":"IncorrectZeroArgument","inputs":[]},{"type":"error","name":"InvalidInitialization","inputs":[]},{"type":"error","name":"NotExist","inputs":[]},{"type":"error","name":"NotFactory","inputs":[]},{"type":"error","name":"NotGovernance","inputs":[]},{"type":"error","name":"NotGovernanceAndNotMultisig","inputs":[]},{"type":"error","name":"NotInitializing","inputs":[]},{"type":"error","name":"NotMultisig","inputs":[]},{"type":"error","name":"NotOperator","inputs":[]},{"type":"error","name":"NotPlatform","inputs":[]},{"type":"error","name":"NotTheOwner","inputs":[]},{"type":"error","name":"NotVault","inputs":[]},{"type":"error","name":"RewardIsTooBig","inputs":[]},{"type":"error","name":"RewardIsTooSmall","inputs":[]}],"bytecode":{"object":"0x60806040523480156200001157600080fd5b506200001c62000022565b620000d6565b7ff0c57e16840df040f15088dc2f81fe391c3923bec73e23a9662efc9c229c6a00805468010000000000000000900460ff1615620000735760405163f92ee8a960e01b815260040160405180910390fd5b80546001600160401b0390811614620000d35780546001600160401b0319166001600160401b0390811782556040519081527fc7f505b2f371ae2175ee4913f4499e1f2633a7b5936321eed1cdaeb6115181d29060200160405180910390a15b50565b613d8d80620000e66000396000f3fe608060405234801561001057600080fd5b50600436106101cf5760003560e01c80634f6ccce71161010457806395d89b41116100a2578063c87b56dd11610071578063c87b56dd1461041e578063e985e9c514610431578063ee1fe2ad14610444578063ffa1ad74146103b957600080fd5b806395d89b41146103dd578063a22cb465146103e5578063b5802f73146103f8578063b88d4fde1461040b57600080fd5b806377205b63116100de57806377205b63146103615780638220ef5b146103765780639164359a14610394578063936725ec146103b957600080fd5b80634f6ccce7146103285780636352211e1461033b57806370a082311461034e57600080fd5b806323b872dd116101715780633ccf45f41161014b5780633ccf45f4146102f257806342842e0e146103055780634593144c146103185780634bde38c81461032057600080fd5b806323b872dd146102b95780632f745c59146102cc5780633cae9646146102df57600080fd5b8063095ea7b3116101ad578063095ea7b31461023c57806318160ddd1461025157806319ab453c14610270578063218fc1e61461028357600080fd5b806301ffc9a7146101d457806306fdde03146101fc578063081812fc14610211575b600080fd5b6101e76101e2366004612bde565b610457565b60405190151581526020015b60405180910390f35b61020461049d565b6040516101f39190612c52565b61022461021f366004612c65565b610541565b6040516001600160a01b0390911681526020016101f3565b61024f61024a366004612c93565b610556565b005b600080516020613d18833981519152545b6040519081526020016101f3565b61024f61027e366004612cbf565b610565565b610224610291366004612c65565b6000908152600080516020613d3883398151915260205260409020546001600160a01b031690565b61024f6102c7366004612cdc565b6106c1565b6102626102da366004612c93565b610751565b61024f6102ed366004612e40565b6107c5565b610224610300366004612c65565b610892565b61024f610313366004612cdc565b6108ef565b61026261090f565b610224610948565b610262610336366004612c65565b610978565b610224610349366004612c65565b6109f0565b61026261035c366004612cbf565b6109fb565b610369610a57565b6040516101f39190612f51565b61037e610b26565b6040516101f39a99989796959493929190612fef565b6103a76103a2366004612cbf565b611391565b6040516101f3969594939291906130ca565b610204604051806040016040528060058152602001640312e302e360dc1b81525081565b6102046115b9565b61024f6103f336600461313d565b6115f8565b61024f610406366004613176565b611603565b61024f6104193660046131c2565b611684565b61020461042c366004612c65565b61169b565b6101e761043f36600461326b565b611f34565b61026261045236600461326b565b611f81565b60006001600160e01b031982166303c2abc560e31b148061048857506001600160e01b03198216630f1ec81f60e41b145b80610497575061049782611fea565b92915050565b600080516020613cf883398151915280546060919081906104bd90613299565b80601f01602080910402602001604051908101604052809291908181526020018280546104e990613299565b80156105365780601f1061050b57610100808354040283529160200191610536565b820191906000526020600020905b81548152906001019060200180831161051957829003601f168201915b505050505091505090565b600061054c8261200f565b5061049782612047565b610561828233612081565b5050565b7ff0c57e16840df040f15088dc2f81fe391c3923bec73e23a9662efc9c229c6a008054600160401b810460ff1615906001600160401b03166000811580156105aa5750825b90506000826001600160401b031660011480156105c65750303b155b9050811580156105d4575080155b156105f25760405163f92ee8a960e01b815260040160405180910390fd5b845467ffffffffffffffff19166001178555831561061c57845460ff60401b1916600160401b1785555b6106258661208e565b6106736040518060400160405280600f81526020016e14dd18589a5b1a5d1e4815985d5b1d608a1b81525060405180604001604052806005815260200164159055531560da1b8152506121ec565b83156106b957845460ff60401b19168555604051600181527fc7f505b2f371ae2175ee4913f4499e1f2633a7b5936321eed1cdaeb6115181d29060200160405180910390a15b505050505050565b6001600160a01b0382166106f057604051633250574960e11b8152600060048201526024015b60405180910390fd5b60006106fd8383336121fe565b9050836001600160a01b0316816001600160a01b03161461074b576040516364283d7b60e01b81526001600160a01b03808616600483015260248201849052821660448201526064016106e7565b50505050565b6000600080516020613cd883398151915261076b846109fb565b831061079c5760405163295f44f760e21b81526001600160a01b0385166004820152602481018490526044016106e7565b6001600160a01b0384166000908152602091825260408082208583529092522054905092915050565b600080516020613d388339815191526107dd846122ff565b60008481526020829052604090819020549051633e6d4a2f60e11b81526001600160a01b03909116908190637cda945e9061081e90879087906004016132cd565b600060405180830381600087803b15801561083857600080fd5b505af115801561084c573d6000803e3d6000fd5b505050507f8a3f3ae961f929de67317ea56703e16267eb8de197efed8c2395939fac4dd747858585604051610883939291906132fb565b60405180910390a15050505050565b60008181527fdc91b926f64ceb646f47da4c796e445221faf197fcaee29e875daf63dcf64e0160205260409020546001600160a01b0316600080516020613d38833981519152816108e9576108e683612333565b91505b50919050565b61090a83838360405180602001604052806000815250611684565b505050565b600061094361093f60017f812a673dfca07956350df10f8a654925f561d7a0da09bdbe79e653939a14d9f1613330565b5490565b905090565b600061094361093f60017faa116a42804728f23983458454b6eb9c6ddf3011db9f9addaf3cd7508d85b0d6613330565b6000600080516020613cd883398151915261099f600080516020613d188339815191525490565b83106109c85760405163295f44f760e21b815260006004820152602481018490526044016106e7565b8060020183815481106109dd576109dd613351565b9060005260206000200154915050919050565b60006104978261200f565b6000600080516020613cf88339815191526001600160a01b038316610a36576040516322718ad960e21b8152600060048201526024016106e7565b6001600160a01b039092166000908152600390920160205250604090205490565b6060600080516020613d388339815191526000610a80600080516020613d188339815191525490565b9050806001600160401b03811115610a9a57610a9a612d1d565b604051908082528060200260200182016040528015610ac3578160200160208202803683370190505b50925060005b81811015610b205760008181526020849052604090205484516001600160a01b0390911690859083908110610b0057610b00613351565b6001600160a01b0390921660209283029190910190910152600101610ac9565b50505090565b6060808080808080808080600080516020613d388339815191526000610b58600080516020613d188339815191525490565b9050806001600160401b03811115610b7257610b72612d1d565b604051908082528060200260200182016040528015610b9b578160200160208202803683370190505b509b50806001600160401b03811115610bb657610bb6612d1d565b604051908082528060200260200182016040528015610be957816020015b6060815260200190600190039081610bd45790505b509a50806001600160401b03811115610c0457610c04612d1d565b604051908082528060200260200182016040528015610c3757816020015b6060815260200190600190039081610c225790505b509950806001600160401b03811115610c5257610c52612d1d565b604051908082528060200260200182016040528015610c8557816020015b6060815260200190600190039081610c705790505b509850806001600160401b03811115610ca057610ca0612d1d565b604051908082528060200260200182016040528015610cd357816020015b6060815260200190600190039081610cbe5790505b509750806001600160401b03811115610cee57610cee612d1d565b604051908082528060200260200182016040528015610d17578160200160208202803683370190505b509650806001600160401b03811115610d3257610d32612d1d565b604051908082528060200260200182016040528015610d5b578160200160208202803683370190505b509450806001600160401b03811115610d7657610d76612d1d565b604051908082528060200260200182016040528015610d9f578160200160208202803683370190505b509350806001600160401b03811115610dba57610dba612d1d565b604051908082528060200260200182016040528015610ded57816020015b6060815260200190600190039081610dd85790505b509250806001600160401b03811115610e0857610e08612d1d565b604051908082528060200260200182016040528015610e31578160200160208202803683370190505b50955060005b81811015611382576000818152602084905260409020548d516001600160a01b03909116908e9083908110610e6e57610e6e613351565b60200260200101906001600160a01b031690816001600160a01b03168152505060008d8281518110610ea257610ea2613351565b602002602001015190508d8281518110610ebe57610ebe613351565b60200260200101516001600160a01b03166306fdde036040518163ffffffff1660e01b8152600401600060405180830381865afa158015610f03573d6000803e3d6000fd5b505050506040513d6000823e601f3d908101601f19168201604052610f2b91908101906133ac565b8d8381518110610f3d57610f3d613351565b60200260200101819052508d8281518110610f5a57610f5a613351565b60200260200101516001600160a01b03166395d89b416040518163ffffffff1660e01b8152600401600060405180830381865afa158015610f9f573d6000803e3d6000fd5b505050506040513d6000823e601f3d908101601f19168201604052610fc791908101906133ac565b8c8381518110610fd957610fd9613351565b6020026020010181905250806001600160a01b0316634ac032be6040518163ffffffff1660e01b8152600401600060405180830381865afa158015611022573d6000803e3d6000fd5b505050506040513d6000823e601f3d908101601f1916820160405261104a91908101906133ac565b8b838151811061105c5761105c613351565b60200260200101819052506000816001600160a01b031663a8c62e766040518163ffffffff1660e01b8152600401602060405180830381865afa1580156110a7573d6000803e3d6000fd5b505050506040513d601f19601f820116820180604052508101906110cb91906133e0565b9050806001600160a01b0316634875c9686040518163ffffffff1660e01b8152600401600060405180830381865afa15801561110b573d6000803e3d6000fd5b505050506040513d6000823e601f3d908101601f1916820160405261113391908101906133ac565b8b848151811061114557611145613351565b6020026020010181905250806001600160a01b0316631ec71e056040518163ffffffff1660e01b8152600401600060405180830381865afa15801561118e573d6000803e3d6000fd5b505050506040513d6000823e601f3d908101601f191682016040526111b6919081019061340d565b508684815181106111c9576111c9613351565b6020026020010181905250816001600160a01b031663845bc8046040518163ffffffff1660e01b8152600401600060405180830381865afa158015611212573d6000803e3d6000fd5b505050506040513d6000823e601f3d908101601f1916820160405261123a91908101906134bb565b90505089858151811061124f5761124f613351565b6020026020010189868151811061126857611268613351565b6020026020010182815250828152505050816001600160a01b031663a035b1fe6040518163ffffffff1660e01b81526004016040805180830381865afa1580156112b6573d6000803e3d6000fd5b505050506040513d601f19601f820116820180604052508101906112da9190613585565b508a84815181106112ed576112ed613351565b602002602001018181525050816001600160a01b031663e5328e066040518163ffffffff1660e01b81526004016040805180830381865afa158015611336573d6000803e3d6000fd5b505050506040513d601f19601f8201168201806040525081019061135a9190613585565b5089848151811061136d5761136d613351565b60209081029190910101525050600101610e37565b50505090919293949596979899565b6000606060006060806000808790506000816001600160a01b031663a8c62e766040518163ffffffff1660e01b8152600401602060405180830381865afa1580156113e0573d6000803e3d6000fd5b505050506040513d601f19601f8201168201806040525081019061140491906133e0565b9050809750806001600160a01b03166371a973056040518163ffffffff1660e01b8152600401600060405180830381865afa158015611447573d6000803e3d6000fd5b505050506040513d6000823e601f3d908101601f1916820160405261146f91908101906135aa565b9650806001600160a01b0316636f307dc36040518163ffffffff1660e01b8152600401602060405180830381865afa1580156114af573d6000803e3d6000fd5b505050506040513d601f19601f820116820180604052508101906114d391906133e0565b9550816001600160a01b031663845bc8046040518163ffffffff1660e01b8152600401600060405180830381865afa158015611513573d6000803e3d6000fd5b505050506040513d6000823e601f3d908101601f1916820160405261153b91908101906134bb565b909192509091508095508196505050806001600160a01b03166313e631806040518163ffffffff1660e01b8152600401602060405180830381865afa158015611588573d6000803e3d6000fd5b505050506040513d601f19601f820116820180604052508101906115ac91906135de565b9250505091939550919395565b7f80bb2b638cc20bc4d0a60d66940f3ab4a00c1d7b313497ca82fb0b4ab00793018054606091600080516020613cf8833981519152916104bd90613299565b61056133838361236d565b600080516020613d3883398151915261161b836122ff565b600083815260018201602090815260409182902080546001600160a01b0319166001600160a01b0386169081179091558251868152918201527fa83e8967b7ce26c82b43a0fc5e46f1a242fd5341151c6f7c098efe8d485b4e56910160405180910390a1505050565b61168f8484846106c1565b61074b8484848461241e565b606060006116a883612333565b6001600160a01b0316036116cf5760405163ad5679e160e01b815260040160405180910390fd5b6000600080516020613d3883398151915290506117716040518061020001604052806000815260200160006001600160a01b0316815260200160608152602001606081526020016060815260200160608152602001606081526020016000815260200160008152602001600081526020016000801916815260200160008152602001606081526020016060815260200160008152602001600080191681525090565b600061177b610948565b90506000816001600160a01b031663c45a01556040518163ffffffff1660e01b8152600401602060405180830381865afa1580156117bd573d6000803e3d6000fd5b505050506040513d601f19601f820116820180604052508101906117e191906133e0565b600087815260208681526040808320546001600160a01b03168783018190528151635463173b60e11b8152915194955093849263a8c62e7692600480820193918290030181865afa15801561183a573d6000803e3d6000fd5b505050506040513d601f19601f8201168201806040525081019061185e91906133e0565b9050816001600160a01b031663a035b1fe6040518163ffffffff1660e01b81526004016040805180830381865afa15801561189d573d6000803e3d6000fd5b505050506040513d601f19601f820116820180604052508101906118c19190613585565b5060e086015260408051637299470360e11b815281516001600160a01b0385169263e5328e0692600480820193918290030181865afa158015611908573d6000803e3d6000fd5b505050506040513d601f19601f8201168201806040525081019061192c9190613585565b5085610100018181525050816001600160a01b031663845bc8046040518163ffffffff1660e01b8152600401600060405180830381865afa158015611975573d6000803e3d6000fd5b505050506040513d6000823e601f3d908101601f1916820160405261199d91908101906134bb565b50506101c087015261012086015260408051632560195f60e11b815290516001600160a01b03841691634ac032be9160048083019260009291908290030181865afa1580156119f0573d6000803e3d6000fd5b505050506040513d6000823e601f3d908101601f19168201604052611a1891908101906133ac565b856040018190525084602001516001600160a01b03166306fdde036040518163ffffffff1660e01b8152600401600060405180830381865afa158015611a62573d6000803e3d6000fd5b505050506040513d6000823e601f3d908101601f19168201604052611a8a91908101906133ac565b8560600181905250816001600160a01b031663190024e06040518163ffffffff1660e01b8152600401602060405180830381865afa158015611ad0573d6000803e3d6000fd5b505050506040513d601f19601f82011682018060405250810190611af491906135de565b85610140018181525050806001600160a01b031663190024e06040518163ffffffff1660e01b8152600401602060405180830381865afa158015611b3c573d6000803e3d6000fd5b505050506040513d601f19601f82011682018060405250810190611b6091906135de565b6101e08601526040805180820182526009815268526577617264696e6760b81b6020918201529086015180519101206000907f9ebab07909aaa4cdae2d5e985d99720616df0dc6818db31d46ea1437e7afe57f01611cc757600086602001516001600160a01b031663c2b18aa06040518163ffffffff1660e01b8152600401600060405180830381865afa158015611bfc573d6000803e3d6000fd5b505050506040513d6000823e601f3d908101601f19168201604052611c2491908101906135aa565b60405163fbcadbe960e01b815290915073__$b761489e1a9a71ac007b01cba0a3843eb8$__9063fbcadbe990611c5e9084906004016135f7565b600060405180830381865af4158015611c7b573d6000803e3d6000fd5b505050506040513d6000823e601f3d908101601f19168201604052611ca391908101906136c3565b60c088015280518190600090611cbb57611cbb613351565b60200260200101519150505b6040808701519051637ac1b9a760e11b81526001600160a01b0386169163f583734e91611cfb9190869086906004016136f7565b600060405180830381865afa158015611d18573d6000803e3d6000fd5b505050506040513d6000823e601f3d908101601f19168201604052611d40919081019061372a565b60808b01526101a08a015260a089015250610180870181905280516020909101206040516362b75e6b60e11b815260048101919091526001600160a01b0385169063c56ebcd690602401600060405180830381865afa158015611da7573d6000803e3d6000fd5b505050506040513d6000823e601f3d908101601f19168201604052611dcf91908101906137fb565b60a001518661016001818152505073__$9658538c2045327a63a41c61f3f02aa0e4$__638aecdced87876001600160a01b031663a8f43c676040518163ffffffff1660e01b8152600401600060405180830381865afa158015611e36573d6000803e3d6000fd5b505050506040513d6000823e601f3d908101601f19168201604052611e5e91908101906133ac565b886001600160a01b03166335157a586040518163ffffffff1660e01b8152600401600060405180830381865afa158015611e9c573d6000803e3d6000fd5b505050506040513d6000823e601f3d908101601f19168201604052611ec491908101906138c7565b6040518463ffffffff1660e01b8152600401611ee2939291906139e6565b600060405180830381865af4158015611eff573d6000803e3d6000fd5b505050506040513d6000823e601f3d908101601f19168201604052611f2791908101906133ac565b9998505050505050505050565b6001600160a01b0391821660009081527f80bb2b638cc20bc4d0a60d66940f3ab4a00c1d7b313497ca82fb0b4ab00793056020908152604080832093909416825291909152205460ff1690565b6000611f8b612547565b600080516020613d38833981519152611fb0600080516020613d188339815191525490565b600081815260208390526040902080546001600160a01b0319166001600160a01b0386161790559150611fe384836125da565b5092915050565b60006001600160e01b0319821663780e9d6360e01b148061049757506104978261263f565b60008061201b83612333565b90506001600160a01b03811661049757604051637e27328960e01b8152600481018490526024016106e7565b60009081527f80bb2b638cc20bc4d0a60d66940f3ab4a00c1d7b313497ca82fb0b4ab007930460205260409020546001600160a01b031690565b61090a838383600161268f565b6120966127a5565b6001600160a01b038116158061211f575060006001600160a01b0316816001600160a01b0316634783c35b6040518163ffffffff1660e01b8152600401602060405180830381865afa1580156120f0573d6000803e3d6000fd5b505050506040513d601f19601f8201168201806040525081019061211491906133e0565b6001600160a01b0316145b1561213d576040516371c42ac360e01b815260040160405180910390fd5b61217061216b60017faa116a42804728f23983458454b6eb9c6ddf3011db9f9addaf3cd7508d85b0d6613330565b829055565b6121a24361219f60017f812a673dfca07956350df10f8a654925f561d7a0da09bdbe79e653939a14d9f1613330565b55565b604080516001600160a01b0383168152426020820152438183015290517f1a2dd071001ebf6e03174e3df5b305795a4ad5d41d8fdb9ba41dbbe2367134269181900360600190a150565b6121f46127a5565b61056182826127ee565b60008061220c85858561281f565b90506001600160a01b0381166122955761229084600080516020613d18833981519152805460008381527f645e039705490088daad89bae25049a34f4a9072d398537b1ab2425f24cbed0360205260408120829055600182018355919091527fa42f15e5d656f8155fd7419d740a6073999f19cd6e061449ce4a257150545bf20155565b6122b8565b846001600160a01b0316816001600160a01b0316146122b8576122b88185612929565b6001600160a01b0385166122d4576122cf846129cd565b6122f7565b846001600160a01b0316816001600160a01b0316146122f7576122f78585612aa4565b949350505050565b3361230982612333565b6001600160a01b031614612330576040516336b6b89560e01b815260040160405180910390fd5b50565b60009081527f80bb2b638cc20bc4d0a60d66940f3ab4a00c1d7b313497ca82fb0b4ab007930260205260409020546001600160a01b031690565b600080516020613cf88339815191526001600160a01b0383166123ae57604051630b61174360e31b81526001600160a01b03841660048201526024016106e7565b6001600160a01b038481166000818152600584016020908152604080832094881680845294825291829020805460ff191687151590811790915591519182527f17307eab39ab6107e8899845ad3d59bd9653f200f220920489ca2b5937696c31910160405180910390a350505050565b6001600160a01b0383163b1561074b57604051630a85bd0160e11b81526001600160a01b0384169063150b7a0290612460903390889087908790600401613b6a565b6020604051808303816000875af192505050801561249b575060408051601f3d908101601f1916820190925261249891810190613b9d565b60015b612504573d8080156124c9576040519150601f19603f3d011682016040523d82523d6000602084013e6124ce565b606091505b5080516000036124fc57604051633250574960e11b81526001600160a01b03851660048201526024016106e7565b805181602001fd5b6001600160e01b03198116630a85bd0160e11b1461254057604051633250574960e11b81526001600160a01b03851660048201526024016106e7565b5050505050565b33612550610948565b6001600160a01b031663c45a01556040518163ffffffff1660e01b8152600401602060405180830381865afa15801561258d573d6000803e3d6000fd5b505050506040513d601f19601f820116820180604052508101906125b191906133e0565b6001600160a01b0316146125d857604051631966391b60e11b815260040160405180910390fd5b565b6001600160a01b03821661260457604051633250574960e11b8152600060048201526024016106e7565b6000612612838360006121fe565b90506001600160a01b0381161561090a576040516339e3563760e11b8152600060048201526024016106e7565b60006001600160e01b031982166380ac58cd60e01b148061267057506001600160e01b03198216635b5e139f60e01b145b8061049757506301ffc9a760e01b6001600160e01b0319831614610497565b600080516020613cf883398151915281806126b257506001600160a01b03831615155b156127745760006126c28561200f565b90506001600160a01b038416158015906126ee5750836001600160a01b0316816001600160a01b031614155b801561270157506126ff8185611f34565b155b1561272a5760405163a9fbf51f60e01b81526001600160a01b03851660048201526024016106e7565b82156127725784866001600160a01b0316826001600160a01b03167f8c5be1e5ebec7d5bd14f71427d1e84f3dd0314c0f7b2291e5b200ac8c7c3b92560405160405180910390a45b505b600093845260040160205250506040902080546001600160a01b0319166001600160a01b0392909216919091179055565b7ff0c57e16840df040f15088dc2f81fe391c3923bec73e23a9662efc9c229c6a0054600160401b900460ff166125d857604051631afcd79f60e31b815260040160405180910390fd5b6127f66127a5565b600080516020613cf8833981519152806128108482613c02565b506001810161074b8382613c02565b6000600080516020613cf88339815191528161283a85612333565b90506001600160a01b0384161561285657612856818587612aff565b6001600160a01b038116156128965761287360008660008061268f565b6001600160a01b0381166000908152600383016020526040902080546000190190555b6001600160a01b038616156128c7576001600160a01b03861660009081526003830160205260409020805460010190555b600085815260028301602052604080822080546001600160a01b0319166001600160a01b038a811691821790925591518893918516917fddf252ad1be2c89b69c2b068fc378daa952ba7f163c4a11628f55a4df523b3ef91a495945050505050565b600080516020613cd88339815191526000612943846109fb565b6000848152600184016020526040902054909150808214612998576001600160a01b03851660009081526020848152604080832085845282528083205484845281842081905583526001860190915290208190555b50600092835260018201602090815260408085208590556001600160a01b039095168452918252838320908352905290812055565b600080516020613d1883398151915254600080516020613cd8833981519152906000906129fc90600190613330565b6000848152600384016020526040812054600285018054939450909284908110612a2857612a28613351565b9060005260206000200154905080846002018381548110612a4b57612a4b613351565b600091825260208083209091019290925582815260038601909152604080822084905586825281205560028401805480612a8757612a87613cc1565b600190038181906000526020600020016000905590555050505050565b600080516020613cd883398151915260006001612ac0856109fb565b612aca9190613330565b6001600160a01b0390941660009081526020838152604080832087845282528083208690559482526001909301909252502055565b612b0a838383612b63565b61090a576001600160a01b038316612b3857604051637e27328960e01b8152600481018290526024016106e7565b60405163177e802f60e01b81526001600160a01b0383166004820152602481018290526044016106e7565b60006001600160a01b038316158015906122f75750826001600160a01b0316846001600160a01b03161480612b9d5750612b9d8484611f34565b806122f75750826001600160a01b0316612bb683612047565b6001600160a01b031614949350505050565b6001600160e01b03198116811461233057600080fd5b600060208284031215612bf057600080fd5b8135612bfb81612bc8565b9392505050565b60005b83811015612c1d578181015183820152602001612c05565b50506000910152565b60008151808452612c3e816020860160208601612c02565b601f01601f19169290920160200192915050565b602081526000612bfb6020830184612c26565b600060208284031215612c7757600080fd5b5035919050565b6001600160a01b038116811461233057600080fd5b60008060408385031215612ca657600080fd5b8235612cb181612c7e565b946020939093013593505050565b600060208284031215612cd157600080fd5b8135612bfb81612c7e565b600080600060608486031215612cf157600080fd5b8335612cfc81612c7e565b92506020840135612d0c81612c7e565b929592945050506040919091013590565b634e487b7160e01b600052604160045260246000fd5b60405160c081016001600160401b0381118282101715612d5557612d55612d1d565b60405290565b60405161010081016001600160401b0381118282101715612d5557612d55612d1d565b604051601f8201601f191681016001600160401b0381118282101715612da657612da6612d1d565b604052919050565b60006001600160401b03821115612dc757612dc7612d1d565b5060051b60200190565b600082601f830112612de257600080fd5b81356020612df7612df283612dae565b612d7e565b8083825260208201915060208460051b870101935086841115612e1957600080fd5b602086015b84811015612e355780358352918301918301612e1e565b509695505050505050565b600080600060608486031215612e5557600080fd5b833592506020808501356001600160401b0380821115612e7457600080fd5b818701915087601f830112612e8857600080fd5b8135612e96612df282612dae565b81815260059190911b8301840190848101908a831115612eb557600080fd5b938501935b82851015612edc578435612ecd81612c7e565b82529385019390850190612eba565b965050506040870135925080831115612ef457600080fd5b5050612f0286828701612dd1565b9150509250925092565b60008151808452602080850194506020840160005b83811015612f465781516001600160a01b031687529582019590820190600101612f21565b509495945050505050565b602081526000612bfb6020830184612f0c565b60008282518085526020808601955060208260051b8401016020860160005b84811015612fb157601f19868403018952612f9f838351612c26565b98840198925090830190600101612f83565b5090979650505050505050565b60008151808452602080850194506020840160005b83811015612f4657815187529582019590820190600101612fd3565b60006101408083526130038184018e612f0c565b90508281036020840152613017818d612f64565b9050828103604084015261302b818c612f64565b9050828103606084015261303f818b612f64565b90508281036080840152613053818a612f64565b905082810360a08401526130678189612fbe565b905082810360c084015261307b8188612fbe565b905082810360e084015261308f8187612fbe565b90508281036101008401526130a48186612fbe565b90508281036101208401526130b98185612f64565b9d9c50505050505050505050505050565b600060018060a01b03808916835260c060208401526130ec60c0840189612f0c565b818816604085015283810360608501526131068188612f0c565b915050828103608084015261311b8186612fbe565b9150508260a0830152979650505050505050565b801515811461233057600080fd5b6000806040838503121561315057600080fd5b823561315b81612c7e565b9150602083013561316b8161312f565b809150509250929050565b6000806040838503121561318957600080fd5b82359150602083013561316b81612c7e565b60006001600160401b038211156131b4576131b4612d1d565b50601f01601f191660200190565b600080600080608085870312156131d857600080fd5b84356131e381612c7e565b935060208501356131f381612c7e565b92506040850135915060608501356001600160401b0381111561321557600080fd5b8501601f8101871361322657600080fd5b8035613234612df28261319b565b81815288602083850101111561324957600080fd5b8160208401602083013760006020838301015280935050505092959194509250565b6000806040838503121561327e57600080fd5b823561328981612c7e565b9150602083013561316b81612c7e565b600181811c908216806132ad57607f821691505b6020821081036108e957634e487b7160e01b600052602260045260246000fd5b6040815260006132e06040830185612f0c565b82810360208401526132f28185612fbe565b95945050505050565b8381526060602082015260006133146060830185612f0c565b82810360408401526133268185612fbe565b9695505050505050565b8181038181111561049757634e487b7160e01b600052601160045260246000fd5b634e487b7160e01b600052603260045260246000fd5b600082601f83011261337857600080fd5b8151613386612df28261319b565b81815284602083860101111561339b57600080fd5b6122f7826020830160208701612c02565b6000602082840312156133be57600080fd5b81516001600160401b038111156133d457600080fd5b6122f784828501613367565b6000602082840312156133f257600080fd5b8151612bfb81612c7e565b80516134088161312f565b919050565b6000806040838503121561342057600080fd5b82516001600160401b0381111561343657600080fd5b61344285828601613367565b925050602083015161316b8161312f565b600082601f83011261346457600080fd5b81516020613474612df283612dae565b8083825260208201915060208460051b87010193508684111561349657600080fd5b602086015b84811015612e355780516134ae81612c7e565b835291830191830161349b565b600080600080608085870312156134d157600080fd5b84519350602080860151935060408601516001600160401b03808211156134f757600080fd5b61350389838a01613453565b9450606088015191508082111561351957600080fd5b508601601f8101881361352b57600080fd5b8051613539612df282612dae565b81815260059190911b8201830190838101908a83111561355857600080fd5b928401925b828410156135765783518252928401929084019061355d565b979a9699509497505050505050565b6000806040838503121561359857600080fd5b82519150602083015161316b8161312f565b6000602082840312156135bc57600080fd5b81516001600160401b038111156135d257600080fd5b6122f784828501613453565b6000602082840312156135f057600080fd5b5051919050565b6020808252825182820181905260009190848201906040850190845b818110156136385783516001600160a01b031683529284019291840191600101613613565b50909695505050505050565b600082601f83011261365557600080fd5b81516020613665612df283612dae565b82815260059290921b8401810191818101908684111561368457600080fd5b8286015b84811015612e355780516001600160401b038111156136a75760008081fd5b6136b58986838b0101613367565b845250918301918301613688565b6000602082840312156136d557600080fd5b81516001600160401b038111156136eb57600080fd5b6122f784828501613644565b60608152600061370a6060830186612c26565b6001600160a01b0394851660208401529290931660409091015292915050565b600080600080600060a0868803121561374257600080fd5b85516001600160401b038082111561375957600080fd5b61376589838a01613367565b9650602088015191508082111561377b57600080fd5b61378789838a01613453565b9550604088015191508082111561379d57600080fd5b6137a989838a01613644565b945060608801519150808211156137bf57600080fd5b6137cb89838a01613367565b935060808801519150808211156137e157600080fd5b506137ee88828901613367565b9150509295509295909350565b60006020828403121561380d57600080fd5b81516001600160401b038082111561382457600080fd5b9083019060c0828603121561383857600080fd5b613840612d33565b82518281111561384f57600080fd5b61385b87828601613367565b8252506020830151915061386e82612c7e565b816020820152604083015191506138848261312f565b8160408201526060830151915061389a8261312f565b8160608201526138ac608084016133fd565b608082015260a083015160a082015280935050505092915050565b6000602082840312156138d957600080fd5b81516001600160401b03808211156138f057600080fd5b90830190610100828603121561390557600080fd5b61390d612d5b565b82518281111561391c57600080fd5b61392887828601613367565b8252506020830151602082015260408301516040820152606083015160608201526080830151608082015260a083015160a082015260c083015160c082015260e083015160e082015280935050505092915050565b6000610100825181855261399382860182612c26565b9150506020830151602085015260408301516040850152606083015160608501526080830151608085015260a083015160a085015260c083015160c085015260e083015160e08501528091505092915050565b606081528351606082015260006020850151613a0d60808401826001600160a01b03169052565b5060408501516102008060a0850152613a2a610260850183612c26565b91506060870151605f19808685030160c0870152613a488483612c26565b935060808901519150808685030160e0870152613a658483612c26565b935060a08901519150610100818786030181880152613a848584612f64565b945060c08a01519250610120828887030181890152613aa38685612f64565b60e08c01516101408a810191909152928c0151610160808b0191909152918c0151610180808b0191909152928c01516101a0808b0191909152918c01516101c0808b0191909152928c015189820385016101e0808c0191909152919750945090613b0d8786612c26565b9650808c0151945050828887030185890152613b298685612c26565b9550818b0151610220890152808b015161024089015250505050508281036020840152613b568186612c26565b90508281036040840152613326818561397d565b6001600160a01b038581168252841660208201526040810183905260806060820181905260009061332690830184612c26565b600060208284031215613baf57600080fd5b8151612bfb81612bc8565b601f82111561090a576000816000526020600020601f850160051c81016020861015613be35750805b601f850160051c820191505b818110156106b957828155600101613bef565b81516001600160401b03811115613c1b57613c1b612d1d565b613c2f81613c298454613299565b84613bba565b602080601f831160018114613c645760008415613c4c5750858301515b600019600386901b1c1916600185901b1785556106b9565b600085815260208120601f198616915b82811015613c9357888601518255948401946001909101908401613c74565b5085821015613cb15787850151600019600388901b60f8161c191681555b5050505050600190811b01905550565b634e487b7160e01b600052603160045260246000fdfe645e039705490088daad89bae25049a34f4a9072d398537b1ab2425f24cbed0080bb2b638cc20bc4d0a60d66940f3ab4a00c1d7b313497ca82fb0b4ab0079300645e039705490088daad89bae25049a34f4a9072d398537b1ab2425f24cbed02dc91b926f64ceb646f47da4c796e445221faf197fcaee29e875daf63dcf64e00a2646970667358221220935ad6f6f0ce5ee0c81ae41e46df48a75ac2b347d6490ee9544dcb5db30d0e2464736f6c63430008170033","linkReferences":{"src/core/libs/CommonLib.sol":{"CommonLib":[{"start":7452,"length":20}]},"src/core/libs/VaultManagerLib.sol":{"VaultManagerLib":[{"start":7877,"length":20}]}}},"methodIdentifiers":{"CONTROLLABLE_VERSION()":"936725ec","VERSION()":"ffa1ad74","approve(address,uint256)":"095ea7b3","balanceOf(address)":"70a08231","changeVaultParams(uint256,address[],uint256[])":"3cae9646","createdBlock()":"4593144c","getApproved(uint256)":"081812fc","getRevenueReceiver(uint256)":"3ccf45f4","init(address)":"19ab453c","isApprovedForAll(address,address)":"e985e9c5","mint(address,address)":"ee1fe2ad","name()":"06fdde03","ownerOf(uint256)":"6352211e","platform()":"4bde38c8","safeTransferFrom(address,address,uint256)":"42842e0e","safeTransferFrom(address,address,uint256,bytes)":"b88d4fde","setApprovalForAll(address,bool)":"a22cb465","setRevenueReceiver(uint256,address)":"b5802f73","supportsInterface(bytes4)":"01ffc9a7","symbol()":"95d89b41","tokenByIndex(uint256)":"4f6ccce7","tokenOfOwnerByIndex(address,uint256)":"2f745c59","tokenURI(uint256)":"c87b56dd","tokenVault(uint256)":"218fc1e6","totalSupply()":"18160ddd","transferFrom(address,address,uint256)":"23b872dd","vaultAddresses()":"77205b63","vaultInfo(address)":"9164359a","vaults()":"8220ef5b"},"id":64}